:020000040800F2
:1000000028040020450100085D050008D904000807
:1000100059050008BD030008410900080000000060
:10002000000000000000000000000000B90500080A
:10003000C103000800000000750500085D07000806
:100040005F0100085F0100085F0100085F01000810
:100050005F0100085F0100085F0100085F01000800
:100060005F0100085F0100085F0100085F010008F0
:100070005F0100085F0100085F0100085F010008E0
:100080005F0100085F0100085F0100085F010008D0
:100090005F0100085F0100085F0100085F010008C0
:1000A0005F0100085F0100085F0100085F010008B0
:1000B0005F0100085F0100085F0100085F010008A0
:1000C0005F0100085F0100085F0100085F01000890
:1000D0005F0100085F0100085F0100085F01000880
:1000E0005F0100085F0100085F0100085F01000870
:1000F0005F0100085F0100085F0100085F01000860
:100100005F0100085F0100085F0100085F0100084F
:100110005F0100085F0100085F0100085F0100083F
:100120005F0100085F0100085F0100085F0100082F
:10013000DFF80CD000F030F900480047250B00082C
:10014000280400200648804706480047FEE7FEE7EF
:10015000FEE7FEE7FEE7FEE7FEE7FEE7FEE7FEE777
:100160006107000831010008F0B480EA0102D40FF1
:100170004200B2EB410F02D20246084611464A0045
:1001800042D0C30DDDB2C1F3C752AD1A202D35DA0E
:10019000C1F3160141F4000204B15242C5F1200638
:1001A00002FA06F12A411044B3EBD05F23D0C4B168
:1001B000012DA0EBC35009DCF0BC4FF0004202EA75
:1001C000C352DBB200F5000000F0B8B8400000F107
:1001D000807000EBC350A0F1807040EAD1704900FC
:1001E00009E0490841EAC071A0EBC35000F50000E6
:1001F000400800EBC350F0BC00F097B86142012208
:1002000002EB4101001BF6E7F0BC704781F00041B2
:10021000AAE780F00040A7E780EA010210B502F0EB
:100220000043400022D04A001FD0010E01EB1261B2
:10023000C0F35600C2F3560240F4000042F400023C
:10024000A0FB022000047F39140400D0401C50EAB7
:10025000124001D44000491EC2B20C0604EBD0107B
:10026000401C4008802A02D003E0002010BD20F08E
:100270000100002900DA0020184310BD30B480EAE4
:10028000010202F0004530F0004221F0004013D09E
:1002900090B1C30DD40DC2F31601C0F31600E41AD9
:1002A00041F4000140F400027D34914201D3641C0A
:1002B00000E04900002C02DA30BC002070474FF407
:1002C00000000023914201D3891A034340084FEAFA
:1002D0004101F7D151B1914202D14FF0004105E007
:1002E00002D24FF0010101E06FF0010103EBC450B5
:1002F000284430BC00F019B896230022114600F0C3
:100300001DB820F00040C10DC0F3160040F40000FD
:100310007F2901DA00207047962903DCC1F196019C
:10032000C84070479639884070470029A8BF704779
:10033000401C490008BF20F00100704710B4B0FA1B
:1003400080FC00FA0CF050EA010404BF10BC7047B6
:1003500049B1CCF1200421FA04F411FA0CF118BFD0
:10036000012121430843A3EB0C01CB1D4FEA00619F
:100370004FEA102042BF002010BC704700EBC35072
:1003800010440029A4BF10BC7047401C490008BF9E
:1003900020F0010010BC7047064C074D06E0E068F5
:1003A00040F0010394E8070098471034AC42F6D3BC
:1003B000FFF7C2FED80D0008F80D000800BFFEE7E9
:1003C00070472DE9F0410246002500260020002359
:1003D0000024002791F803C00CF00F0591F803C02A
:1003E0000CF0100CBCF1000F03D091F802C04CEAE5
:1003F000050591F800C0BCF1000F31D01468002051
:100400002BE04FF0010C0CFA00F3B1F800C00CEA3D
:1004100003069E4220D183004FF00F0C0CFA03F725
:10042000BC4305FA03FC4CEA040491F803C0BCF198
:10043000280F06D14FF0010C0CFA00FCC2F814C0D2
:100440000AE091F803C0BCF1480F05D14FF0010C50
:100450000CFA00FCC2F810C0401C0828D1D314606C
:10046000B1F800C0BCF1FF0F34DD546800202EE06D
:1004700000F1080C4FF0010808FA0CF3B1F800C0C5
:100480000CEA03069E4221D183004FF00F0C0CFAB8
:1004900003F7BC4305FA03FC4CEA040491F803C0DB
:1004A000BCF1280F05D100F1080C08FA0CF8C2F8CD
:1004B000148091F803C0BCF1480F07D100F1080C7B
:1004C0004FF0010808FA0CF8C2F81080401C082808
:1004D000CED35460BDE8F08100BFFEE700B5002038
:1004E00015490861C8601420486100208861C8610E
:1004F0000846006840F001000860084640680F495F
:1005000008400D494860084600680D4908400A49FE
:1005100008600846006820F48020086008464068AB
:1005200020F4FE0048600020886000214FF0006049
:1005300000F008F800BD0000001002400000FFF8C5
:10054000FFFFF6FE024A0A400243024B1A60704760
:1005500080FFFF1F08ED00E000BFFEE770470000CE
:1005600002490143024A1160704700000000FA0589
:100570000CED00E07047000029B1064AD269024341
:10058000044BDA6104E0034AD2698243014BDA6129
:10059000704700000010024029B1064A92690243E8
:1005A000044B9A6104E0034A92698243014B9A61C9
:1005B0007047000000100240704710B500F002F8CC
:1005C00010BD00000CB50020019000903348006879
:1005D00040F480303149086000BF3048006800F4C2
:1005E000003000900198401C0190009818B90198C3
:1005F000B0F5A06FF1D12948006800F4003010B1C7
:100600000120009001E0002000900098012843D1D3
:100610002348006840F0100021490860084600683F
:1006200020F0030008600846006840F002000860FF
:100630001A484068194948600846406848600846BA
:10064000406840F4806048600846406820F47C10B0
:1006500048600846406840F4E81048600846006872
:1006600040F08070086000BF0C48006800F0007027
:100670000028F9D00948406820F003000749486085
:100680000846406840F00200486000BF03484068E8
:1006900000F00C000828F9D10CBD00000010024049
:1006A0000020024030B504460025FFF717FF1F4821
:1006B000006840F480301D49086000BF1B48006896
:1006C000400C0028FAD04FF4806018494860A01E02
:1006D000C4B20846406840EA844048600846406822
:1006E00040F4803048601248006840F03200104901
:1006F00008600E48006840F080700C49086000BF38
:100700000A480068400E0028FAD00848406840F0C7
:1007100002000649486005E004484068C0F38705C8
:1007200005F00305022DF7D130BD00000010024096
:1007300000200240042808D14FF0E021096941F06F
:1007400004014FF0E022116107E04FF0E021096958
:1007500021F004014FF0E022116170477047000062
:1007600010B51348006840F00100114908600846C0
:100770004068104908400E494860084600680E4924
:1007800008400B4908600846006820F48020086093
:100790000846406820F4FE0048604FF41F0088605F
:1007A000FFF70BFF4FF000600449086010BD000028
:1007B000001002400000FFF8FFFFF6FE08ED00E029
:1007C00021B1028842F00102028004E002884FF663
:1007D000FE731A400280704770B500240022002387
:1007E000058C4FF6EF7635400584028C8388048BA8
:1007F00048F6FF752C404FF6FF452C400D884FF60C
:10080000FF7606EA05252C434FF6DF752A400D8951
:1008100006EA05152A434D8806EA05152A43154DB3
:10082000A84202D0144DA8421DD14FF67F752A4030
:100830004D894FF6FF7606EA05152A434FF6BF7538
:100840002A408D8806EA05152A434FF6FF352B40CE
:100850004FF2FF752B408D8906EA85052B43CD8924
:1008600006EA85052B4383800483CD8805870284AF
:1008700070BD0000002C0140003401400A460021F8
:10088000018B4FF2FF7319404FF6FF7303EA022307
:1008900019430183704701877047000000220288D6
:1008A0001D4B98420ED01D4B98420BD0B0F1804F9B
:1008B00008D01B4B984205D01A4B984202D01A4BD5
:1008C000984204D14FF68F731A404B881A43174B46
:1008D000984207D0164B984204D04FF6FF431A4077
:1008E000CB881A4302808B8883850B8803850A4B4B
:1008F00098420BD0094B984208D00E4B984205D035
:100900000D4B984202D00D4B984201D10B7A0386D1
:100910000123838270470000002C01400034014015
:100920000004004000080040000C0040001000409F
:1009300000140040004001400044014000480140D4
:1009400000BFFEE70FB4054B10B503A9044A029897
:1009500000F017F810BC5DF814FB0000050B000850
:100960001C00002002E008C8121F08C1002AFAD1AA
:1009700070477047002001E001C1121F002AFBD11F
:1009800070472DE9F84F994692468846054600275C
:1009900006E025280AD051464A4690476D1C7F1C28
:1009A00028780028F5D13846BDE8F88F002315F8DF
:1009B000011F18462E2915D115F8011F04232A29D5
:1009C0000DD06FF02F022978A1F13004092C09D83D
:1009D00000EB800002EB400008446D1CF3E758F880
:1009E000040B6D1C2A78002ADDD0632A07D0732AF5
:1009F0000FD0104651464A4690477F1C2AE018F80F
:100A0000042B8DF8002000218DF801106E46012185
:100A100003E058F8046B4FF0FF315A074FF0000421
:100A200001D409E0641C84420BDA8C42FADB325DAB
:100A3000002AF7D105E0641C8C42FCDB305D002805
:100A4000F9D1274404E016F8010B51464A46904775
:100A5000641EF8D26D1CA3E710B56FF00400FFF719
:100A600069FE0A4800680A49B0FBF1F009490870BC
:100A70000846007800EB4001C1EBC0104FF6FF7153
:100A800001EAC0000449088010BD000000000020F9
:100A900000127A00180000201A0000200146114AB6
:100AA00012884A434FF0E0235A6100229A611A46A5
:100AB000126942F001021A6100BF4FF0E022106992
:100AC00000F001021AB100F48032002AF5D04FF094
:100AD000E022126922F001024FF0E0231A610022A5
:100AE0009A6170471A000020014600BF0448008840
:100AF00000F020000028F9D00148001D0088704750
:100B00000038014000BF054A128802F04002002A66
:100B1000F9D0C2B2014B1B1D1A807047003801404A
:100B2000FFF7E2BF0920FFF7BDFDFFF795FF4FF488
:100B3000E131482000F0EEF84FF4A060FFF710FD1F
:100B400000F070F831A0FFF7FDFE0A2000F0CEF8AB
:100B5000102000F0D5F857E02E48FFF7E1FF2E49AE
:100B60000870084601782DA0FFF7ECFE2A480078AF
:100B7000002849D028480078422806D048281AD0B2
:100B80004E2823D051282CD10AE0052000F0AEF8E1
:100B90004FF47A70FFF782FF0A2000F0B1F82BE0E3
:100BA0000A2000F0A3F84FF47A70FFF777FF1620C1
:100BB00000F0A6F820E00A2000F098F84FF47A70D0
:100BC000FFF76CFF0A2000F09BF815E0052000F00D
:100BD0008DF84FF47A70FFF761FF162000F090F85F
:100BE0000AE0052000F082F84FF47A70FFF756FF14
:100BF0000A2000F07BF800BF00BF4FF47A70FFF7C7
:100C00004DFF102000F07CF8A6E700003132330AD7
:100C10000D000000200000201600002025630A0DB2
:100C20000000000000B589B001210D20FFF7B4FCE1
:100C300001210620FFF7A0FC8020ADF8200018203D
:100C40008DF8230003208DF8220008A92348FFF720
:100C5000B8FB8020ADF8200018208DF82300032079
:100C60008DF8220008A91E48FFF7ABFBC720ADF89E
:100C7000180041F61F40ADF814000020ADF81A002E
:100C8000ADF8160005A91748FFF708FE05A9164894
:100C9000FFF704FE6020ADF804000120ADF8060067
:100CA0000020ADF80C0001A90E48FFF795FD01A941
:100CB0000D48FFF791FD08210A48FFF7DFFD0821E5
:100CC0000948FFF7DBFD01210648FFF779FD012107
:100CD0000548FFF775FD09B000BD000000080140A0
:100CE000000C0140000400400008004010B504461C
:100CF00021460248FFF7CFFD10BD00000004004070
:100D000010B5044621460248FFF7C5FD10BD00009E
:100D1000000800402DE9F05F05460E463001FFF760
:100D2000EBFA8146284905FB01F0FFF7E5FA824618
:100D30004946FFF7A3FA07463846FFF7E2FA84B2BE
:100D40002046FFF7D9FA83463946FFF762FA824612
:100D50004FF08341FFF760FA8146FFF7D2FA8046F1
:100D60004FF6FF7000EA041404EB080084B2174841
:100D7000806940F00400154988610846806940F4A4
:100D8000804088611248006820F47F601049086044
:100D90000846006840F40B6008600C48C06840F4E6
:100DA00080400A49C8600846C06820F48040C86096
:100DB00008480480001D008842F20C0108430549E0
:100DC000091D0880BDE8F09F40420F00001002405E
:100DD0000408014008380140F80D00080000002018
:100DE00024000000640900081C0E000824000020F4
:100DF000040400007409000800A24A040000000076
:100E000000000000010203040607080900000000BA
:0C0E1000000000000000000000000000D6
:0400000508000131BD
:00000001FF
